{
  "contractName": "exams",
  "abi": [
    {
      "inputs": [
        {
          "internalType": "address",
          "name": "username",
          "type": "address"
        },
        {
          "internalType": "address",
          "name": "examowner",
          "type": "address"
        },
        {
          "internalType": "uint256",
          "name": "examid",
          "type": "uint256"
        }
      ],
      "name": "allocateExam",
      "outputs": [],
      "stateMutability": "nonpayable",
      "type": "function"
    },
    {
      "inputs": [
        {
          "internalType": "address",
          "name": "username",
          "type": "address"
        },
        {
          "internalType": "uint256",
          "name": "examid",
          "type": "uint256"
        },
        {
          "internalType": "string",
          "name": "examhash",
          "type": "string"
        }
      ],
      "name": "attemptExam",
      "outputs": [],
      "stateMutability": "nonpayable",
      "type": "function"
    },
    {
      "inputs": [],
      "name": "viewExams",
      "outputs": [
        {
          "internalType": "address[]",
          "name": "",
          "type": "address[]"
        },
        {
          "internalType": "address[]",
          "name": "",
          "type": "address[]"
        },
        {
          "internalType": "uint256[]",
          "name": "",
          "type": "uint256[]"
        },
        {
          "internalType": "uint256[]",
          "name": "",
          "type": "uint256[]"
        },
        {
          "internalType": "uint256[]",
          "name": "",
          "type": "uint256[]"
        },
        {
          "internalType": "string[]",
          "name": "",
          "type": "string[]"
        }
      ],
      "stateMutability": "view",
      "type": "function",
      "constant": true
    },
    {
      "inputs": [
        {
          "internalType": "address",
          "name": "username",
          "type": "address"
        },
        {
          "internalType": "uint256",
          "name": "examid",
          "type": "uint256"
        },
        {
          "internalType": "uint256",
          "name": "marks",
          "type": "uint256"
        }
      ],
      "name": "allocateMarks",
      "outputs": [],
      "stateMutability": "nonpayable",
      "type": "function"
    }
  ],
  "bytecode": "0x608060405234801561001057600080fd5b50611179806100206000396000f3fe608060405234801561001057600080fd5b506004361061004c5760003560e01c80630438264d146100515780630943a9581461006d5780630fcfb9821461008957806360e073bd146100a5575b600080fd5b61006b60048036038101906100669190610962565b6100c8565b005b610087600480360381019061008291906109d1565b6101dd565b005b6100a3600480360381019061009e9190610a24565b610366565b005b6100ad610472565b6040516100bf96959493929190610d34565b60405180910390f35b60005b6000805490508110156101d7578373ffffffffffffffffffffffffffffffffffffffff166000828154811061010357610102610dbf565b5b9060005260206000200160009054906101000a900473ffffffffffffffffffffffffffffffffffffffff1673ffffffffffffffffffffffffffffffffffffffff1614801561016e5750600281815481106101605761015f610dbf565b5b906000526020600020015483145b156101c45760016004828154811061018957610188610dbf565b5b906000526020600020018190555081600582815481106101ac576101ab610dbf565b5b9060005260206000200190816101c29190610ffa565b505b80806101cf906110fb565b9150506100cb565b50505050565b6000839080600181540180825580915050600190039060005260206000200160009091909190916101000a81548173ffffffffffffffffffffffffffffffffffffffff021916908373ffffffffffffffffffffffffffffffffffffffff1602179055506001829080600181540180825580915050600190039060005260206000200160009091909190916101000a81548173ffffffffffffffffffffffffffffffffffffffff021916908373ffffffffffffffffffffffffffffffffffffffff16021790555060028190806001815401808255809150506001900390600052602060002001600090919091909150556003600090806001815401808255809150506001900390600052602060002001600090919091909150556004600090806001815401808255809150506001900390600052602060002001600090919091909150556005806001815401808255809150506001900390600052602060002001600060405180602001604052806000815250909190915090816103609190610ffa565b50505050565b60005b60008054905081101561046c578373ffffffffffffffffffffffffffffffffffffffff16600082815481106103a1576103a0610dbf565b5b9060005260206000200160009054906101000a900473ffffffffffffffffffffffffffffffffffffffff1673ffffffffffffffffffffffffffffffffffffffff1614801561040c575082600282815481106103ff576103fe610dbf565b5b9060005260206000200154145b1561045957816003828154811061042657610425610dbf565b5b906000526020600020018190555060026004828154811061044a57610449610dbf565b5b90600052602060002001819055505b8080610464906110fb565b915050610369565b50505050565b6060806060806060806000600160026003600460058580548060200260200160405190810160405280929190818152602001828054801561050857602002820191906000526020600020905b8160009054906101000a900473ffffffffffffffffffffffffffffffffffffffff1673ffffffffffffffffffffffffffffffffffffffff16815260200190600101908083116104be575b505050505095508480548060200260200160405190810160405280929190818152602001828054801561059057602002820191906000526020600020905b8160009054906101000a900473ffffffffffffffffffffffffffffffffffffffff1673ffffffffffffffffffffffffffffffffffffffff1681526020019060010190808311610546575b50505050509450838054806020026020016040519081016040528092919081815260200182805480156105e257602002820191906000526020600020905b8154815260200190600101908083116105ce575b505050505093508280548060200260200160405190810160405280929190818152602001828054801561063457602002820191906000526020600020905b815481526020019060010190808311610620575b505050505092508180548060200260200160405190810160405280929190818152602001828054801561068657602002820191906000526020600020905b815481526020019060010190808311610672575b5050505050915080805480602002602001604051908101604052809291908181526020016000905b8282101561075a5783829060005260206000200180546106cd90610e1d565b80601f01602080910402602001604051908101604052809291908181526020018280546106f990610e1d565b80156107465780601f1061071b57610100808354040283529160200191610746565b820191906000526020600020905b81548152906001019060200180831161072957829003601f168201915b5050505050815260200190600101906106ae565b505050509050955095509550955095509550909192939495565b6000604051905090565b600080fd5b600080fd5b600073ffffffffffffffffffffffffffffffffffffffff82169050919050565b60006107b382610788565b9050919050565b6107c3816107a8565b81146107ce57600080fd5b50565b6000813590506107e0816107ba565b92915050565b6000819050919050565b6107f9816107e6565b811461080457600080fd5b50565b600081359050610816816107f0565b92915050565b600080fd5b600080fd5b6000601f19601f8301169050919050565b7f4e487b7100000000000000000000000000000000000000000000000000000000600052604160045260246000fd5b61086f82610826565b810181811067ffffffffffffffff8211171561088e5761088d610837565b5b80604052505050565b60006108a1610774565b90506108ad8282610866565b919050565b600067ffffffffffffffff8211156108cd576108cc610837565b5b6108d682610826565b9050602081019050919050565b82818337600083830152505050565b6000610905610900846108b2565b610897565b90508281526020810184848401111561092157610920610821565b5b61092c8482856108e3565b509392505050565b600082601f8301126109495761094861081c565b5b81356109598482602086016108f2565b91505092915050565b60008060006060848603121561097b5761097a61077e565b5b6000610989868287016107d1565b935050602061099a86828701610807565b925050604084013567ffffffffffffffff8111156109bb576109ba610783565b5b6109c786828701610934565b9150509250925092565b6000806000606084860312156109ea576109e961077e565b5b60006109f8868287016107d1565b9350506020610a09868287016107d1565b9250506040610a1a86828701610807565b9150509250925092565b600080600060608486031215610a3d57610a3c61077e565b5b6000610a4b868287016107d1565b9350506020610a5c86828701610807565b9250506040610a6d86828701610807565b9150509250925092565b600081519050919050565b600082825260208201905092915050565b6000819050602082019050919050565b610aac816107a8565b82525050565b6000610abe8383610aa3565b60208301905092915050565b6000602082019050919050565b6000610ae282610a77565b610aec8185610a82565b9350610af783610a93565b8060005b83811015610b28578151610b0f8882610ab2565b9750610b1a83610aca565b925050600181019050610afb565b5085935050505092915050565b600081519050919050565b600082825260208201905092915050565b6000819050602082019050919050565b610b6a816107e6565b82525050565b6000610b7c8383610b61565b60208301905092915050565b6000602082019050919050565b6000610ba082610b35565b610baa8185610b40565b9350610bb583610b51565b8060005b83811015610be6578151610bcd8882610b70565b9750610bd883610b88565b925050600181019050610bb9565b5085935050505092915050565b600081519050919050565b600082825260208201905092915050565b6000819050602082019050919050565b600081519050919050565b600082825260208201905092915050565b60005b83811015610c59578082015181840152602081019050610c3e565b60008484015250505050565b6000610c7082610c1f565b610c7a8185610c2a565b9350610c8a818560208601610c3b565b610c9381610826565b840191505092915050565b6000610caa8383610c65565b905092915050565b6000602082019050919050565b6000610cca82610bf3565b610cd48185610bfe565b935083602082028501610ce685610c0f565b8060005b85811015610d225784840389528151610d038582610c9e565b9450610d0e83610cb2565b925060208a01995050600181019050610cea565b50829750879550505050505092915050565b600060c0820190508181036000830152610d4e8189610ad7565b90508181036020830152610d628188610ad7565b90508181036040830152610d768187610b95565b90508181036060830152610d8a8186610b95565b90508181036080830152610d9e8185610b95565b905081810360a0830152610db28184610cbf565b9050979650505050505050565b7f4e487b7100000000000000000000000000000000000000000000000000000000600052603260045260246000fd5b7f4e487b7100000000000000000000000000000000000000000000000000000000600052602260045260246000fd5b60006002820490506001821680610e3557607f821691505b602082108103610e4857610e47610dee565b5b50919050565b60008190508160005260206000209050919050565b60006020601f8301049050919050565b600082821b905092915050565b600060088302610eb07fffffffffffffffffffffffffffffffffffffffffffffffffffffffffffffffff82610e73565b610eba8683610e73565b95508019841693508086168417925050509392505050565b6000819050919050565b6000610ef7610ef2610eed846107e6565b610ed2565b6107e6565b9050919050565b6000819050919050565b610f1183610edc565b610f25610f1d82610efe565b848454610e80565b825550505050565b600090565b610f3a610f2d565b610f45818484610f08565b505050565b5b81811015610f6957610f5e600082610f32565b600181019050610f4b565b5050565b601f821115610fae57610f7f81610e4e565b610f8884610e63565b81016020851015610f97578190505b610fab610fa385610e63565b830182610f4a565b50505b505050565b600082821c905092915050565b6000610fd160001984600802610fb3565b1980831691505092915050565b6000610fea8383610fc0565b9150826002028217905092915050565b61100382610c1f565b67ffffffffffffffff81111561101c5761101b610837565b5b6110268254610e1d565b611031828285610f6d565b600060209050601f8311600181146110645760008415611052578287015190505b61105c8582610fde565b8655506110c4565b601f19841661107286610e4e565b60005b8281101561109a57848901518255600182019150602085019450602081019050611075565b868310156110b757848901516110b3601f891682610fc0565b8355505b6001600288020188555050505b505050505050565b7f4e487b7100000000000000000000000000000000000000000000000000000000600052601160045260246000fd5b6000611106826107e6565b91507fffffffffffffffffffffffffffffffffffffffffffffffffffffffffffffffff8203611138576111376110cc565b5b60018201905091905056fea2646970667358221220b75a90262af7d00cb5c4553fe69b68cf8e257c94bb5696109ab8ef016308403764736f6c63430008110033",
  "immutableReferences": {},
  "source": "// SPDX-License-Identifier: MIT\npragma solidity >=0.4.22 <0.9.0;\n\ncontract exams {\n\n    // contract variables\n    address[] _usernames;\n    address[] _examowners;\n    uint[] _examids;\n    uint[] _marks;\n    uint[] _statuses; // 0 - Not Yet Started, 1 - Submitted, 2 - Evaluated\n    string[] _examhash;\n\n    function allocateExam(address username,address examowner,uint examid) public {\n        _usernames.push(username);\n        _examowners.push(examowner);\n        _examids.push(examid);\n        _marks.push(0);\n        _statuses.push(0);\n        _examhash.push(\"\");\n    }\n\n    function attemptExam(address username,uint examid,string memory examhash) public {\n\n        uint i;\n        for(i=0;i<_usernames.length;i++) {\n            if(_usernames[i]==username && examid==_examids[i]) {\n                _statuses[i]=1;\n                _examhash[i]=examhash;\n            }\n        }\n\n    }\n\n    function viewExams() public view returns(address[] memory,address[] memory, uint[] memory, uint[] memory,uint[] memory, string[] memory) {\n        return(_usernames,_examowners,_examids,_marks,_statuses,_examhash);\n    }\n\n    function allocateMarks(address username,uint examid,uint marks) public {\n\n        uint i;\n        for(i=0;i<_usernames.length;i++){\n            if(_usernames[i]==username && _examids[i]==examid) {\n                _marks[i]=marks;\n                _statuses[i]=2;\n            }\n        }\n    }    \n}",
  "sourcePath": "/Users/ms/Desktop/skill-verification-system/contracts/exams.sol",
  "compiler": {
    "name": "solc",
    "version": "0.8.17+commit.8df45f5f.Emscripten.clang"
  },
  "schemaVersion": "3.4.13",
  "updatedAt": "2023-04-05T11:13:25.181Z",
  "networkType": "ethereum",
  "devdoc": {
    "kind": "dev",
    "methods": {},
    "version": 1
  },
  "userdoc": {
    "kind": "user",
    "methods": {},
    "version": 1
  }
}