{
  "contractName": "questions",
  "abi": [
    {
      "inputs": [
        {
          "internalType": "address",
          "name": "username",
          "type": "address"
        },
        {
          "internalType": "string",
          "name": "examname",
          "type": "string"
        },
        {
          "internalType": "string[]",
          "name": "question",
          "type": "string[]"
        },
        {
          "internalType": "uint256[]",
          "name": "marks",
          "type": "uint256[]"
        }
      ],
      "name": "addExam",
      "outputs": [],
      "stateMutability": "nonpayable",
      "type": "function"
    },
    {
      "inputs": [],
      "name": "viewExams",
      "outputs": [
        {
          "internalType": "address[]",
          "name": "",
          "type": "address[]"
        },
        {
          "internalType": "string[][]",
          "name": "",
          "type": "string[][]"
        },
        {
          "internalType": "uint256[][]",
          "name": "",
          "type": "uint256[][]"
        },
        {
          "internalType": "uint256[]",
          "name": "",
          "type": "uint256[]"
        },
        {
          "internalType": "string[]",
          "name": "",
          "type": "string[]"
        }
      ],
      "stateMutability": "view",
      "type": "function",
      "constant": true
    }
  ],
  "bytecode": "0x6080604052600060055534801561001557600080fd5b506113f3806100256000396000f3fe608060405234801561001057600080fd5b50600436106100365760003560e01c806333641b5a1461003b57806360e073bd14610057575b600080fd5b61005560048036038101906100509190610a15565b610079565b005b61005f6101d4565b604051610070959493929190611006565b60405180910390f35b60016005600082825461008c91906110ab565b925050819055506004839080600181540180825580915050600190039060005260206000200160009091909190915090816100c791906112eb565b506000849080600181540180825580915050600190039060005260206000200160009091909190916101000a81548173ffffffffffffffffffffffffffffffffffffffff021916908373ffffffffffffffffffffffffffffffffffffffff160217905550600182908060018154018082558091505060019003906000526020600020016000909190919091509080519060200190610166929190610557565b506002819080600181540180825580915050600190039060005260206000200160009091909190915090805190602001906101a29291906105b0565b506003600554908060018154018082558091505060019003906000526020600020016000909190919091505550505050565b6060806060806060600060016002600360048480548060200260200160405190810160405280929190818152602001828054801561026757602002820191906000526020600020905b8160009054906101000a900473ffffffffffffffffffffffffffffffffffffffff1673ffffffffffffffffffffffffffffffffffffffff168152602001906001019080831161021d575b5050505050945083805480602002602001604051908101604052809291908181526020016000905b8282101561038257838290600052602060002001805480602002602001604051908101604052809291908181526020016000905b8282101561036f5783829060005260206000200180546102e29061110e565b80601f016020809104026020016040519081016040528092919081815260200182805461030e9061110e565b801561035b5780601f106103305761010080835404028352916020019161035b565b820191906000526020600020905b81548152906001019060200180831161033e57829003601f168201915b5050505050815260200190600101906102c3565b505050508152602001906001019061028f565b50505050935082805480602002602001604051908101604052809291908181526020016000905b8282101561041b5783829060005260206000200180548060200260200160405190810160405280929190818152602001828054801561040757602002820191906000526020600020905b8154815260200190600101908083116103f3575b5050505050815260200190600101906103a9565b5050505092508180548060200260200160405190810160405280929190818152602001828054801561046c57602002820191906000526020600020905b815481526020019060010190808311610458575b5050505050915080805480602002602001604051908101604052809291908181526020016000905b828210156105405783829060005260206000200180546104b39061110e565b80601f01602080910402602001604051908101604052809291908181526020018280546104df9061110e565b801561052c5780601f106105015761010080835404028352916020019161052c565b820191906000526020600020905b81548152906001019060200180831161050f57829003601f168201915b505050505081526020019060010190610494565b505050509050945094509450945094509091929394565b82805482825590600052602060002090810192821561059f579160200282015b8281111561059e57825182908161058e91906112eb565b5091602001919060010190610577565b5b5090506105ac91906105fd565b5090565b8280548282559060005260206000209081019282156105ec579160200282015b828111156105eb5782518255916020019190600101906105d0565b5b5090506105f99190610621565b5090565b5b8082111561061d5760008181610614919061063e565b506001016105fe565b5090565b5b8082111561063a576000816000905550600101610622565b5090565b50805461064a9061110e565b6000825580601f1061065c575061067b565b601f01602090049060005260206000209081019061067a9190610621565b5b50565b6000604051905090565b600080fd5b600080fd5b600073ffffffffffffffffffffffffffffffffffffffff82169050919050565b60006106bd82610692565b9050919050565b6106cd816106b2565b81146106d857600080fd5b50565b6000813590506106ea816106c4565b92915050565b600080fd5b600080fd5b6000601f19601f8301169050919050565b7f4e487b7100000000000000000000000000000000000000000000000000000000600052604160045260246000fd5b610743826106fa565b810181811067ffffffffffffffff821117156107625761076161070b565b5b80604052505050565b600061077561067e565b9050610781828261073a565b919050565b600067ffffffffffffffff8211156107a1576107a061070b565b5b6107aa826106fa565b9050602081019050919050565b82818337600083830152505050565b60006107d96107d484610786565b61076b565b9050828152602081018484840111156107f5576107f46106f5565b5b6108008482856107b7565b509392505050565b600082601f83011261081d5761081c6106f0565b5b813561082d8482602086016107c6565b91505092915050565b600067ffffffffffffffff8211156108515761085061070b565b5b602082029050602081019050919050565b600080fd5b600061087a61087584610836565b61076b565b9050808382526020820190506020840283018581111561089d5761089c610862565b5b835b818110156108e457803567ffffffffffffffff8111156108c2576108c16106f0565b5b8086016108cf8982610808565b8552602085019450505060208101905061089f565b5050509392505050565b600082601f830112610903576109026106f0565b5b8135610913848260208601610867565b91505092915050565b600067ffffffffffffffff8211156109375761093661070b565b5b602082029050602081019050919050565b6000819050919050565b61095b81610948565b811461096657600080fd5b50565b60008135905061097881610952565b92915050565b600061099161098c8461091c565b61076b565b905080838252602082019050602084028301858111156109b4576109b3610862565b5b835b818110156109dd57806109c98882610969565b8452602084019350506020810190506109b6565b5050509392505050565b600082601f8301126109fc576109fb6106f0565b5b8135610a0c84826020860161097e565b91505092915050565b60008060008060808587031215610a2f57610a2e610688565b5b6000610a3d878288016106db565b945050602085013567ffffffffffffffff811115610a5e57610a5d61068d565b5b610a6a87828801610808565b935050604085013567ffffffffffffffff811115610a8b57610a8a61068d565b5b610a97878288016108ee565b925050606085013567ffffffffffffffff811115610ab857610ab761068d565b5b610ac4878288016109e7565b91505092959194509250565b600081519050919050565b600082825260208201905092915050565b6000819050602082019050919050565b610b05816106b2565b82525050565b6000610b178383610afc565b60208301905092915050565b6000602082019050919050565b6000610b3b82610ad0565b610b458185610adb565b9350610b5083610aec565b8060005b83811015610b81578151610b688882610b0b565b9750610b7383610b23565b925050600181019050610b54565b5085935050505092915050565b600081519050919050565b600082825260208201905092915050565b6000819050602082019050919050565b600081519050919050565b600082825260208201905092915050565b6000819050602082019050919050565b600081519050919050565b600082825260208201905092915050565b60005b83811015610c20578082015181840152602081019050610c05565b60008484015250505050565b6000610c3782610be6565b610c418185610bf1565b9350610c51818560208601610c02565b610c5a816106fa565b840191505092915050565b6000610c718383610c2c565b905092915050565b6000602082019050919050565b6000610c9182610bba565b610c9b8185610bc5565b935083602082028501610cad85610bd6565b8060005b85811015610ce95784840389528151610cca8582610c65565b9450610cd583610c79565b925060208a01995050600181019050610cb1565b50829750879550505050505092915050565b6000610d078383610c86565b905092915050565b6000602082019050919050565b6000610d2782610b8e565b610d318185610b99565b935083602082028501610d4385610baa565b8060005b85811015610d7f5784840389528151610d608582610cfb565b9450610d6b83610d0f565b925060208a01995050600181019050610d47565b50829750879550505050505092915050565b600081519050919050565b600082825260208201905092915050565b6000819050602082019050919050565b600081519050919050565b600082825260208201905092915050565b6000819050602082019050919050565b610df281610948565b82525050565b6000610e048383610de9565b60208301905092915050565b6000602082019050919050565b6000610e2882610dbd565b610e328185610dc8565b9350610e3d83610dd9565b8060005b83811015610e6e578151610e558882610df8565b9750610e6083610e10565b925050600181019050610e41565b5085935050505092915050565b6000610e878383610e1d565b905092915050565b6000602082019050919050565b6000610ea782610d91565b610eb18185610d9c565b935083602082028501610ec385610dad565b8060005b85811015610eff5784840389528151610ee08582610e7b565b9450610eeb83610e8f565b925060208a01995050600181019050610ec7565b50829750879550505050505092915050565b600082825260208201905092915050565b6000610f2d82610dbd565b610f378185610f11565b9350610f4283610dd9565b8060005b83811015610f73578151610f5a8882610df8565b9750610f6583610e10565b925050600181019050610f46565b5085935050505092915050565b600082825260208201905092915050565b6000610f9c82610bba565b610fa68185610f80565b935083602082028501610fb885610bd6565b8060005b85811015610ff45784840389528151610fd58582610c65565b9450610fe083610c79565b925060208a01995050600181019050610fbc565b50829750879550505050505092915050565b600060a08201905081810360008301526110208188610b30565b905081810360208301526110348187610d1c565b905081810360408301526110488186610e9c565b9050818103606083015261105c8185610f22565b905081810360808301526110708184610f91565b90509695505050505050565b7f4e487b7100000000000000000000000000000000000000000000000000000000600052601160045260246000fd5b60006110b682610948565b91506110c183610948565b92508282019050808211156110d9576110d861107c565b5b92915050565b7f4e487b7100000000000000000000000000000000000000000000000000000000600052602260045260246000fd5b6000600282049050600182168061112657607f821691505b602082108103611139576111386110df565b5b50919050565b60008190508160005260206000209050919050565b60006020601f8301049050919050565b600082821b905092915050565b6000600883026111a17fffffffffffffffffffffffffffffffffffffffffffffffffffffffffffffffff82611164565b6111ab8683611164565b95508019841693508086168417925050509392505050565b6000819050919050565b60006111e86111e36111de84610948565b6111c3565b610948565b9050919050565b6000819050919050565b611202836111cd565b61121661120e826111ef565b848454611171565b825550505050565b600090565b61122b61121e565b6112368184846111f9565b505050565b5b8181101561125a5761124f600082611223565b60018101905061123c565b5050565b601f82111561129f576112708161113f565b61127984611154565b81016020851015611288578190505b61129c61129485611154565b83018261123b565b50505b505050565b600082821c905092915050565b60006112c2600019846008026112a4565b1980831691505092915050565b60006112db83836112b1565b9150826002028217905092915050565b6112f482610be6565b67ffffffffffffffff81111561130d5761130c61070b565b5b611317825461110e565b61132282828561125e565b600060209050601f8311600181146113555760008415611343578287015190505b61134d85826112cf565b8655506113b5565b601f1984166113638661113f565b60005b8281101561138b57848901518255600182019150602085019450602081019050611366565b868310156113a857848901516113a4601f8916826112b1565b8355505b6001600288020188555050505b50505050505056fea264697066735822122019b125b4cf0e551b431a3bded707c483f61e98c471c5b8975128aa12a35f09dc64736f6c63430008110033",
  "immutableReferences": {},
  "source": "// SPDX-License-Identifier: MIT\npragma solidity >=0.4.22 <0.9.0;\n\ncontract questions{\n\n    // contract variables\n    address[] _usernames;\n    string[][] _questions;\n    uint[][] _marks;\n    uint[] _examids;\n    string[] _examnames;\n\n    uint ecount=0;\n\n    mapping(uint=>bool) _exams;\n\n    // function which can add exam\n    function addExam(address username,string memory examname,string[] memory question,uint[] memory marks) public {\n        \n        ecount+=1;\n        _examnames.push(examname);\n        _usernames.push(username);\n        _questions.push(question);\n        _marks.push(marks);\n        _examids.push(ecount);\n    }\n\n    // function which displays all exams\n    function viewExams() public view returns(address[] memory,string[][] memory,uint[][] memory,uint[] memory,string[] memory) {\n        return(_usernames,_questions,_marks,_examids,_examnames);\n    }\n\n}",
  "sourcePath": "/Users/ms/Desktop/skill-verification-system/contracts/questions.sol",
  "compiler": {
    "name": "solc",
    "version": "0.8.17+commit.8df45f5f.Emscripten.clang"
  },
  "schemaVersion": "3.4.13",
  "updatedAt": "2023-04-05T11:13:24.826Z",
  "networkType": "ethereum",
  "devdoc": {
    "kind": "dev",
    "methods": {},
    "version": 1
  },
  "userdoc": {
    "kind": "user",
    "methods": {},
    "version": 1
  }
}