{
  "contractName": "register",
  "abi": [
    {
      "inputs": [
        {
          "internalType": "address",
          "name": "username",
          "type": "address"
        },
        {
          "internalType": "string",
          "name": "name",
          "type": "string"
        },
        {
          "internalType": "string",
          "name": "email",
          "type": "string"
        },
        {
          "internalType": "string",
          "name": "mobile",
          "type": "string"
        },
        {
          "internalType": "uint256",
          "name": "password",
          "type": "uint256"
        },
        {
          "internalType": "uint256",
          "name": "role",
          "type": "uint256"
        }
      ],
      "name": "registerUser",
      "outputs": [],
      "stateMutability": "nonpayable",
      "type": "function"
    },
    {
      "inputs": [],
      "name": "viewUsers",
      "outputs": [
        {
          "internalType": "address[]",
          "name": "",
          "type": "address[]"
        },
        {
          "internalType": "string[]",
          "name": "",
          "type": "string[]"
        },
        {
          "internalType": "string[]",
          "name": "email",
          "type": "string[]"
        },
        {
          "internalType": "string[]",
          "name": "",
          "type": "string[]"
        },
        {
          "internalType": "uint256[]",
          "name": "",
          "type": "uint256[]"
        },
        {
          "internalType": "uint256[]",
          "name": "",
          "type": "uint256[]"
        }
      ],
      "stateMutability": "view",
      "type": "function",
      "constant": true
    },
    {
      "inputs": [
        {
          "internalType": "address",
          "name": "username",
          "type": "address"
        },
        {
          "internalType": "uint256",
          "name": "password",
          "type": "uint256"
        }
      ],
      "name": "loginUser",
      "outputs": [
        {
          "internalType": "bool",
          "name": "",
          "type": "bool"
        }
      ],
      "stateMutability": "view",
      "type": "function",
      "constant": true
    }
  ],
  "bytecode": "0x608060405234801561001057600080fd5b50611204806100206000396000f3fe608060405234801561001057600080fd5b50600436106100415760003560e01c806314ebdb7914610046578063940d49b414610069578063eb72346b14610085575b600080fd5b61004e6100b5565b60405161006096959493929190610ac7565b60405180910390f35b610083600480360381019061007e9190610cf3565b610483565b005b61009f600480360381019061009a9190610dd4565b61068e565b6040516100ac9190610e2f565b60405180910390f35b6060806060806060806000600160026003600460058580548060200260200160405190810160405280929190818152602001828054801561014b57602002820191906000526020600020905b8160009054906101000a900473ffffffffffffffffffffffffffffffffffffffff1673ffffffffffffffffffffffffffffffffffffffff1681526020019060010190808311610101575b5050505050955084805480602002602001604051908101604052809291908181526020016000905b8282101561021f57838290600052602060002001805461019290610e79565b80601f01602080910402602001604051908101604052809291908181526020018280546101be90610e79565b801561020b5780601f106101e05761010080835404028352916020019161020b565b820191906000526020600020905b8154815290600101906020018083116101ee57829003601f168201915b505050505081526020019060010190610173565b50505050945083805480602002602001604051908101604052809291908181526020016000905b828210156102f257838290600052602060002001805461026590610e79565b80601f016020809104026020016040519081016040528092919081815260200182805461029190610e79565b80156102de5780601f106102b3576101008083540402835291602001916102de565b820191906000526020600020905b8154815290600101906020018083116102c157829003601f168201915b505050505081526020019060010190610246565b50505050935082805480602002602001604051908101604052809291908181526020016000905b828210156103c557838290600052602060002001805461033890610e79565b80601f016020809104026020016040519081016040528092919081815260200182805461036490610e79565b80156103b15780601f10610386576101008083540402835291602001916103b1565b820191906000526020600020905b81548152906001019060200180831161039457829003601f168201915b505050505081526020019060010190610319565b5050505092508180548060200260200160405190810160405280929190818152602001828054801561041657602002820191906000526020600020905b815481526020019060010190808311610402575b505050505091508080548060200260200160405190810160405280929190818152602001828054801561046857602002820191906000526020600020905b815481526020019060010190808311610454575b50505050509050955095509550955095509550909192939495565b600660008773ffffffffffffffffffffffffffffffffffffffff1673ffffffffffffffffffffffffffffffffffffffff16815260200190815260200160002060009054906101000a900460ff16156104da57600080fd5b6001600660008873ffffffffffffffffffffffffffffffffffffffff1673ffffffffffffffffffffffffffffffffffffffff16815260200190815260200160002060006101000a81548160ff02191690831515021790555060058190806001815401808255809150506001900390600052602060002001600090919091909150556000869080600181540180825580915050600190039060005260206000200160009091909190916101000a81548173ffffffffffffffffffffffffffffffffffffffff021916908373ffffffffffffffffffffffffffffffffffffffff1602179055506001859080600181540180825580915050600190039060005260206000200160009091909190915090816105f29190611056565b506002849080600181540180825580915050600190039060005260206000200160009091909190915090816106279190611056565b5060038390806001815401808255809150506001900390600052602060002001600090919091909150908161065c9190611056565b506004829080600181540180825580915050600190039060005260206000200160009091909190915055505050505050565b600080600660008573ffffffffffffffffffffffffffffffffffffffff1673ffffffffffffffffffffffffffffffffffffffff16815260200190815260200160002060009054906101000a900460ff166106e757600080fd5b600090505b6000805490508110156107b1578373ffffffffffffffffffffffffffffffffffffffff166000828154811061072457610723611128565b5b9060005260206000200160009054906101000a900473ffffffffffffffffffffffffffffffffffffffff1673ffffffffffffffffffffffffffffffffffffffff1614801561078f5750826004828154811061078257610781611128565b5b9060005260206000200154145b1561079e5760019150506107b7565b80806107a990611186565b9150506106ec565b60009150505b92915050565b600081519050919050565b600082825260208201905092915050565b6000819050602082019050919050565b600073ffffffffffffffffffffffffffffffffffffffff82169050919050565b6000610814826107e9565b9050919050565b61082481610809565b82525050565b6000610836838361081b565b60208301905092915050565b6000602082019050919050565b600061085a826107bd565b61086481856107c8565b935061086f836107d9565b8060005b838110156108a0578151610887888261082a565b975061089283610842565b925050600181019050610873565b5085935050505092915050565b600081519050919050565b600082825260208201905092915050565b6000819050602082019050919050565b600081519050919050565b600082825260208201905092915050565b60005b838110156109135780820151818401526020810190506108f8565b60008484015250505050565b6000601f19601f8301169050919050565b600061093b826108d9565b61094581856108e4565b93506109558185602086016108f5565b61095e8161091f565b840191505092915050565b60006109758383610930565b905092915050565b6000602082019050919050565b6000610995826108ad565b61099f81856108b8565b9350836020820285016109b1856108c9565b8060005b858110156109ed57848403895281516109ce8582610969565b94506109d98361097d565b925060208a019950506001810190506109b5565b50829750879550505050505092915050565b600081519050919050565b600082825260208201905092915050565b6000819050602082019050919050565b6000819050919050565b610a3e81610a2b565b82525050565b6000610a508383610a35565b60208301905092915050565b6000602082019050919050565b6000610a74826109ff565b610a7e8185610a0a565b9350610a8983610a1b565b8060005b83811015610aba578151610aa18882610a44565b9750610aac83610a5c565b925050600181019050610a8d565b5085935050505092915050565b600060c0820190508181036000830152610ae1818961084f565b90508181036020830152610af5818861098a565b90508181036040830152610b09818761098a565b90508181036060830152610b1d818661098a565b90508181036080830152610b318185610a69565b905081810360a0830152610b458184610a69565b9050979650505050505050565b6000604051905090565b600080fd5b600080fd5b610b6f81610809565b8114610b7a57600080fd5b50565b600081359050610b8c81610b66565b92915050565b600080fd5b600080fd5b7f4e487b7100000000000000000000000000000000000000000000000000000000600052604160045260246000fd5b610bd48261091f565b810181811067ffffffffffffffff82111715610bf357610bf2610b9c565b5b80604052505050565b6000610c06610b52565b9050610c128282610bcb565b919050565b600067ffffffffffffffff821115610c3257610c31610b9c565b5b610c3b8261091f565b9050602081019050919050565b82818337600083830152505050565b6000610c6a610c6584610c17565b610bfc565b905082815260208101848484011115610c8657610c85610b97565b5b610c91848285610c48565b509392505050565b600082601f830112610cae57610cad610b92565b5b8135610cbe848260208601610c57565b91505092915050565b610cd081610a2b565b8114610cdb57600080fd5b50565b600081359050610ced81610cc7565b92915050565b60008060008060008060c08789031215610d1057610d0f610b5c565b5b6000610d1e89828a01610b7d565b965050602087013567ffffffffffffffff811115610d3f57610d3e610b61565b5b610d4b89828a01610c99565b955050604087013567ffffffffffffffff811115610d6c57610d6b610b61565b5b610d7889828a01610c99565b945050606087013567ffffffffffffffff811115610d9957610d98610b61565b5b610da589828a01610c99565b9350506080610db689828a01610cde565b92505060a0610dc789828a01610cde565b9150509295509295509295565b60008060408385031215610deb57610dea610b5c565b5b6000610df985828601610b7d565b9250506020610e0a85828601610cde565b9150509250929050565b60008115159050919050565b610e2981610e14565b82525050565b6000602082019050610e446000830184610e20565b92915050565b7f4e487b7100000000000000000000000000000000000000000000000000000000600052602260045260246000fd5b60006002820490506001821680610e9157607f821691505b602082108103610ea457610ea3610e4a565b5b50919050565b60008190508160005260206000209050919050565b60006020601f8301049050919050565b600082821b905092915050565b600060088302610f0c7fffffffffffffffffffffffffffffffffffffffffffffffffffffffffffffffff82610ecf565b610f168683610ecf565b95508019841693508086168417925050509392505050565b6000819050919050565b6000610f53610f4e610f4984610a2b565b610f2e565b610a2b565b9050919050565b6000819050919050565b610f6d83610f38565b610f81610f7982610f5a565b848454610edc565b825550505050565b600090565b610f96610f89565b610fa1818484610f64565b505050565b5b81811015610fc557610fba600082610f8e565b600181019050610fa7565b5050565b601f82111561100a57610fdb81610eaa565b610fe484610ebf565b81016020851015610ff3578190505b611007610fff85610ebf565b830182610fa6565b50505b505050565b600082821c905092915050565b600061102d6000198460080261100f565b1980831691505092915050565b6000611046838361101c565b9150826002028217905092915050565b61105f826108d9565b67ffffffffffffffff81111561107857611077610b9c565b5b6110828254610e79565b61108d828285610fc9565b600060209050601f8311600181146110c057600084156110ae578287015190505b6110b8858261103a565b865550611120565b601f1984166110ce86610eaa565b60005b828110156110f6578489015182556001820191506020850194506020810190506110d1565b86831015611113578489015161110f601f89168261101c565b8355505b6001600288020188555050505b505050505050565b7f4e487b7100000000000000000000000000000000000000000000000000000000600052603260045260246000fd5b7f4e487b7100000000000000000000000000000000000000000000000000000000600052601160045260246000fd5b600061119182610a2b565b91507fffffffffffffffffffffffffffffffffffffffffffffffffffffffffffffffff82036111c3576111c2611157565b5b60018201905091905056fea2646970667358221220e653b85af4aa37dfe49fd6affb7db0ba8a81e014e3b78225451190247a0db7f564736f6c63430008110033",
  "immutableReferences": {},
  "source": "// SPDX-License-Identifier: MIT\npragma solidity >=0.4.22 <0.9.0;\n\ncontract register {\n  \n  address[] _usernames; // stores the wallet address\n  string[] _names;\n  string[] _emails;\n  string[] _mobiles;\n  uint[] _passwords;\n  uint[] _roles; // 0 - instructor, 1 - evaluator, 2-candidate, 3-recruiter\n\n  mapping(address=>bool) _users; // avoiding duplicate users\n\n  // INSERT INTO - registering the user\n  function registerUser(address username,string memory name, string memory email,string memory mobile,uint password,uint role) public {\n\n    require(!_users[username]); // if it is first time, it will allow\n\n    _users[username]=true;\n    _roles.push(role);\n    _usernames.push(username);\n    _names.push(name);\n    _emails.push(email);\n    _mobiles.push(mobile);\n    _passwords.push(password); // push - inserting data into the contract variables\n  }\n\n  // SELECT * - displaying all the user details\n  function viewUsers() public view returns(address[] memory,string[] memory,string[] memory email,string[] memory,uint[] memory,uint[] memory) {\n    return(_usernames,_names,_emails,_mobiles,_passwords,_roles);\n  }\n\n  // function which is called for login\n  function loginUser(address username,uint password) public view returns(bool){\n\n    uint i;\n    require(_users[username]); // this will block unregistered users\n\n    for(i=0;i<_usernames.length;i++){\n      if(_usernames[i]==username && _passwords[i]==password) {\n        return true;\n      }\n    }\n    return false;\n  }\n}\n",
  "sourcePath": "/Users/ms/Desktop/skill-verification-system/contracts/register.sol",
  "compiler": {
    "name": "solc",
    "version": "0.8.17+commit.8df45f5f.Emscripten.clang"
  },
  "schemaVersion": "3.4.13",
  "updatedAt": "2023-04-05T11:13:24.377Z",
  "networkType": "ethereum",
  "devdoc": {
    "kind": "dev",
    "methods": {},
    "version": 1
  },
  "userdoc": {
    "kind": "user",
    "methods": {},
    "version": 1
  }
}